:020000040800F2
:1000000038140020F5010008C34A00080D49000813
:10001000C14A0008E5350008E14F00080000000073
:10002000000000000000000000000000F14B00088C
:10003000E735000800000000C54A0008F34B00083F
:100040000F0200080F0200080F0200080F0200084C
:100050000F0200080F0200080F020008E93500082F
:100060000F0200080F0200080F0200080F0200082C
:100070000F0200080F0200080F0200080F0200081C
:100080000F0200080F0200080F0200080F0200080C
:100090000F0200080F0200080F0200080F020008FC
:1000A0000F0200080F0200080F0200080F020008EC
:1000B0000F0200080F0200080F0200080F020008DC
:1000C0000F0200080F0200080F0200080F020008CC
:1000D0000F020008B14F00080F0200080F020008CD
:1000E0000F0200080F0200080F02000800F002F8DB
:1000F00000F070F80AA090E8000C82448344AAF152
:100100000107DA4501D100F065F8AFF2090EBAE84F
:100110000F0013F0010F18BFFB1A43F0010318473B
:100120009C770000BC7700000A444FF0000C10F8E8
:10013000013B13F0070408BF10F8014B1D1108BF65
:1001400010F8015B641E05D010F8016B641E01F805
:10015000016BF9D113F0080F1EBF10F8014BAD1C55
:100160000C1B09D16D1E58BF01F801CBFAD505E073
:1001700014F8016B01F8016B6D1EF9D59142D6D3CD
:10018000704700000023002400250026103A28BFF5
:1001900078C1FBD8520728BF30C148BF0B607047F9
:1001A000662907F00081642900F0B480782900F006
:1001B000ED80732900F0BC84002070471FB500F06B
:1001C000CDFC04000020002105F060FFE0601FBDB1
:1001D00010B510BD00F0E2FD1146FFF7EFFF05F08E
:1001E00021FA00F000FE03B4FFF7F2FF03BC04F0B5
:1001F000CEFF00000948804709480047FEE7FEE7B8
:10020000FEE7FEE7FEE7FEE7FEE7FEE7FEE7FEE7C6
:1002100004480549054A064B704700004D4C00084C
:10022000ED000008380E002038140020381000209F
:10023000381000207047B2F120030AD5C2F1200324
:1002400001FA02F120FA03F300FA02F041EA030195
:10025000704700FA03F14FF0000070470FB40449F3
:1002600010B503AA029800F067FC10BC5DF814FBFF
:10027000E403002070B5044685690068C10601D515
:10028000302600E02026C00707D070BDD4E9012148
:1002900030469047206A401C20626D1EF6D570BD26
:1002A00070B5044685690078C00707D170BDD4E9F0
:1002B000012120209047206A401C20626D1EF6D547
:1002C00070BD70B50C460546012A05D02878800619
:1002D00000D5EA69002302E0012305E05B1C93429C
:1002E00002D2E05C0028F9D1A869E618C01AA8611A
:1002F000286A184428622846FFF7BCFF04E0D5E9C5
:10030000012114F8010B9047B442F8D32846FFF7B7
:10031000C7FF70BD2DE9F04106460024106875291D
:10032000314616A510D0AFF30080002802DA404213
:1003300013A507E031688A0701D512A502E0490735
:1003400004D511A5012401E0AFF3008000210A22A9
:1003500006F1240709E0B0FBF2FCB0FBF2F302FB6C
:100360001C00303078541846491C0028F3D123462D
:100370002A463046BDE8F04100F060B900000000B8
:100380002D0000002B0000002000000070B5044686
:100390000D4621461068AFF300802188090502D57B
:1003A0000F4A7A4402E00E4A7A440E32002104F1E8
:1003B000240305E000F00F060009965D5E54491C19
:1003C0000028F7D120780023000704D5702D02D033
:1003D00009B1022311322046BDE8704000F02EB969
:1003E0007C7300002DE9F05F894604464FF0000A57
:1003F000DFF874B1FB44C0F820A02046E1688847CC
:10040000002874D0252806D0D4E901219047206A1D
:10041000401C2062F1E700265F462046E1688847DD
:100420002028054607DB312D05D2781910F8200C5D
:1004300008B10643F1E7B00701D526F00406C4F879
:100440001CA00027C4F818A02A2D09D0284604F0C3
:1004500089FE38B304EB8708303DC8F8185019E01E
:1004600059F8041B204604EB87029161E168884734
:10047000012F054618D1E069002820DA26F0200671
:100480001DE0D8F8180000EB800005EB4000303884
:10049000C8F818002046E1688847054604F062FE67
:1004A0000028EED1012F0AD02E2D08D12046E16878
:1004B00088477F1C0546022F46F02006C4DBA06952
:1004C000002803DA404246F00106A061F00701D09F
:1004D00026F010066C2D0BD0682D09D04C2D39D08C
:1004E0006A2D35D0742D35D07A2D33D016E038E012
:1004F000E1682F4620468847B842054609D16C2F4F
:1005000026D04FF48060E1680643204688470546C0
:1005100004E06C2F1AD04FF4807006430DB3A5F1A0
:100520004100192802D8203546F400664A4629467B
:10053000204626604E46FFF733FE80B101280BD0DF
:10054000F61D26F0070000F1080956E74020E4E711
:100550008020D8E70020D6E706F104094DE72846B9
:1005600052E7206ABDE8F09F5273000010B5203AB0
:10057000C0F00B80B1E81850203AA0E81850B1E85C
:100580001850A0E81850BFF4F5AF5FEA027C24BF12
:10059000B1E81850A0E8185044BF18C918C0BDE809
:1005A00010405FEA827C24BF51F8043B40F8043BD2
:1005B00008BF7047D20728BF31F8023B48BF11F887
:1005C000012B28BF20F8023B48BF00F8012B7047E1
:1005D0004FF0000200B5134694469646203922BFDC
:1005E000A0E80C50A0E80C50B1F12001BFF4F7AF27
:1005F000090728BFA0E80C5048BF0CC05DF804EB09
:10060000890028BF40F8042B08BF704748BF20F876
:10061000022B11F0804F18BF00F8012B7047704774
:1006200070477047704710B500F09CFA006810BD25
:1006300010B5044600F096FA046010BD2DE9F047AD
:100640000D4699469246044600F124080168880642
:1006500004D5E06921F01001216000E00120A842EA
:1006600001DD471B00E00027A1697A1902EB0900B0
:10067000081AA0612078C00602D42046FFF7FAFDD0
:10068000002608E0D4E901211AF806009047206A04
:10069000401C761C20624E45F4DB2078C0060AD54B
:1006A0002046FFF7E7FD06E0D4E90121302090471E
:1006B000206A401C2062381EA7F10107F4DC07E025
:1006C000D4E9012118F805009047206A401C2062F7
:1006D000281EA5F10105F3DC2046FFF7E1FD207897
:1006E000000602D50220BDE8F0870120FBE7704735
:1006F0002DE9FF4F0C461E464FF0FF378BB0D2E975
:100700000001DDF860800A908A46C1F30A5505B9F8
:100710003D46002108464FF00000BAF1000F00F4FA
:10072000400005DA00EB80004FF4400101EA500080
:100730004FEA9059B9F1010F00DDB9460A9850EA25
:100740004A000ED044F61050A5F2FF3545432F1451
:10075000B8F1000F1ED07542291E1EDDC9F100023E
:100760001CE0B8F1010F4FF0000001D0302103E090
:10077000F24305E02154401CB042FBDB304600222E
:10078000002121540B99C1F80880C1E900200FB065
:10079000BDE8F08FBD1B6D1CDEE74A4600DA6942FA
:1007A00006A800F081FA06AB93E8070003AB83E8E4
:1007B000070050460A9900F05FFB8DE80700A0F59E
:1007C00000501F3800900398002D0ADD42F21F01EF
:1007D0004A460844002303A90390684600F0C8FD78
:1007E00009E0A0F500504A461F38002303A90390F2
:1007F000684600F0D2FD8DE807000004000C03D02D
:100800004FF0FF30410800E01046B8F1000F03D070
:100810000022009215461EE0751E05D400F0A6F9D0
:10082000303262556D1EF9D5B3460122084302D01D
:1008300000227F1C04E02078302801D100227F1E96
:10084000002A099784D01DE0112D07DA00F08EF9F7
:10085000303262556D1C50EA0102F5D1084302D0D6
:100860000098C8B10EE00021681E05E0235C625CC0
:1008700063542254401E491C8142F7DBAB46A81B3F
:10088000401E0990002004F80B000B98099AC0F84C
:100890000880C0E9002B7AE711264FF0000857E7DF
:1008A0002DE9F04F88460446D21D22F0070191B091
:1008B000D1E90001CDE90A0104F0B8FB02460B982A
:1008C000C00F01D02D2007E02068810701D52B2023
:1008D00002E0202101EAC000032A099001D0072A82
:1008E00005DB03464146204600F09EF90BE12078E7
:1008F000800601D5E06900E00620B8F1650F814669
:1009000006D0B8F1660F18D0B8F1670F70D131E09A
:100910000020B9F1110F009001DB112301E009F172
:1009200001030AAA01A90CA8FFF7E2FEDDE90C7099
:10093000002609F10105834647E001204B4600905F
:100940004FF000470AAA01A90CA8FFF7D1FEDDE984
:100950000DB00C995D46002610B909F101000D1883
:10096000B9EB050003D4C0F1FF3609F10105A5EB91
:1009700009002BE0B9F1010F01DA4FF00109002065
:10098000B9F1110F0090484601DD112300E0034644
:100990000AAA01A90CA8FFF7ABFEDDE90C704D46D1
:1009A00000268346207800070AD4AB4500DA5D466E
:1009B00001A8012D04DD411911F8011C302907D0CF
:1009C0004F4502DA17F1040F04DA012082460FE0E6
:1009D0006D1EEEE7002F02DCED1B3E4403E0781CA9
:1009E000A84200DD7D1CB81B00F1010A4FF0004752
:1009F0002078000703D4AA4501DB4FF0FF3A00211D
:100A0000B7F1004F0DF143088DF8431024D00220B8
:100A10002B23002F01DA7F422D230A21021EA0F191
:100A2000010000DC5FB197FBF1FC97FBF1F201FBE9
:100A30001C7C17460CF1300C08F801CDEEE7A8F14C
:100A4000010003702188090501D5452100E06521D9
:100A5000A0F1010800F8011C09980FA9A1EB0807F3
:100A6000FF1D00B10120411901EBEA70A169384472
:100A7000081A401EA0612078C00602D42046FFF765
:100A8000F9FB099828B1D4E901219047206A401C5C
:100A900020622078C00622D52046FFF7EBFB1EE03F
:100AA000002E04DBB34502DD01A8805D00E03020AC
:100AB000D4E901219047206A401C2062761CAAF1EB
:100AC00001005FEA000A0AD100F048F8C068016836
:100AD000405CD4E901219047206A401C2062281E16
:100AE000A5F10105DCDC07E0D4E9012118F8010BD0
:100AF0009047206A401C2062381EA7F10107F3DCF2
:100B00002046FFF7CDFB032011B041E610B5436945
:100B100013B1AFF3008001E0FFF7D3FB012010BD5C
:100B2000127800F124010A7000224A700122EDE7D8
:100B300011684FF0FF32E9E7074B70B50D467B4473
:100B400000F05FF80446284600F020F910B14FF09D
:100B5000FF3070BD204670BD8B46000000487047D6
:100B6000F40D002000487047D40D002030B5B0F1DE
:100B70000A024FEA900E71F100034EEA817EB0EB5B
:100B80000E0061EB91014FEA101E4EEA017E10EB60
:100B90000E0041EB11114FEA102E4EEA016E10EBE0
:100BA0000E0041EB11214FEA104E4EEA014E10EBC0
:100BB0000E0041EB1141401841F100014FEAD00015
:100BC00040EA41704FEAD10110EB80054FEA810401
:100BD00044EA907444EB01046D1944EB0404521B85
:100BE000A3414FF0000348BF0A3200D530BD401C7E
:100BF00041F1000130BD000001694A1C0261087822
:100C0000704700B58FB0CDE901310021059105494C
:100C10007944CDE9031011466846FFF7E3FB0FB0B6
:100C200000BD0000E5FFFFFF2DE9F0411F4604462F
:100C300003260168072A01F4006004DB08B116A549
:100C400005E016A503E008B115A500E015A521F003
:100C500010002060A069C01EA0610FB1401EA061FD
:100C60002046FFF707FB4FB1D4E9012138469047F2
:100C7000206A401C2062C01C206206E0206AFAE75D
:100C8000D4E9012115F8010B9047761EF8D22046D1
:100C9000FFF706FBBDE8F0814E414E006E616E002D
:100CA000494E4600696E66002DE9F04781461646BA
:100CB0008AB0354878440DC88DE80D003248784434
:100CC000801C03AC0DC884E80D0041F69B3008443D
:100CD000372190FBF1F290FBF1F5A5F1800501FBC6
:100CE00012041B3C02D56442012000E00020DFF822
:100CF00098A080460027FA44AAF1BE0A0EE0E00759
:100D00000AD03246684607EB470101230AEB81010E
:100D100000F043FB8DE8070064107F1C002CEED12F
:100D2000194F7F44AE3F19E0E80715D007EB0410D8
:100D30000DF1180A90E80E008AE80E00C068F04233
:100D400001D1981908903246012306A903A800F0A2
:100D500024FB03AB83E807006D10641C002DE3D176
:100D60004FF0010332466946B8F1000F03A802D0E4
:100D700000F0FEFA01E000F010FBC9E90001C9F83B
:100D800008200AB0BDE8F087EC6B0000007B00F0A3
:100D90008000704700487047D40D00207546FFF76B
:100DA000F9FFAE4605006946534620F00700854628
:100DB00018B020B5FFF72CFABDE820404FF0000630
:100DC0004FF000074FF000084FF0000B21F0070133
:100DD000AC46ACE8C009ACE8C009ACE8C009ACE876
:100DE000C0098D46704710B50446AFF30080204619
:100DF000BDE81040FFF7F7B94FF0013C50F8042B65
:100E000051F8043B9A4221D1A2EB0C03934313EA1D
:100E1000CC1317D150F8042B51F8043B9A4215D14A
:100E2000A2EB0C03934313EACC130BD150F8042B21
:100E300051F8043B9A4209D1A2EB0C03934313EA05
:100E4000CC13DBD04FF00000704700BFD01A01BABE
:100E5000B1FA81F101F0180122FA01F0CB40C1F1A1
:100E60002001DBB2C0B2C01A2CFA01F3D11A9143AF
:100E700011EAC311E6D170475FEA400C08BF91F058
:100E8000000F4FEA8C234FEAC12243EA51514FEA47
:100E90001C5018BF00F5F0404FEA300018BF41F079
:100EA00000415FEA6C5C00F02980BCF1FF3F08BFA5
:100EB00040F080407047130C06BF12044FF0100C36
:100EC0004FF0000C130E04BF12020CF1080C130FAC
:100ED00004BF12010CF1040C930F04BF92000CF13B
:100EE000020CD30F04BF52000CF1010C11464FF05D
:100EF0000002A0F11F00A0EB0C00704711F0004FA2
:100F000008BF704731F000413FF4D5AF0B0C06BF6E
:100F100009044FF0100C4FF0000C0B0E04BF090237
:100F20000CF1080C0B0F04BF09010CF1040C8B0F22
:100F300004BF89000CF1020CCB0F04BF49000CF177
:100F4000010CCCF12003A0EB0C0022FA03F302FA0F
:100F50000CF241EA030100F10100704720F07F4CE0
:100F600080EA030023F07F47ACEB070303F57C53D3
:100F700000F0004003F1FF032DE980494FEA154BD3
:100F800009B44FEA144325EA0B4E24EA03480FF252
:100F9000042606EB132749083E785FEA320203FB7A
:100FA0000667C7F5000707FB06F64FEA54374FEA16
:100FB000D64606F1020607FB066CCCF1005C4FEA50
:100FC0001C472CEA074C07FB06F40CFB06F504EB68
:100FD00015464FEA961634BF00204FF000404FEA06
:100FE000D13706FB07FC4FEA1C4C0CFB0BF7D21B5E
:100FF00003FB0CF761EB07010CFB0EF7B0EB0740AE
:1010000072EB17420CFB08F734BFA2EB0742B2EBBE
:10101000074261EB17414FEA0C444FEA910706FB88
:1010200007FC4FEA1C4C0CFB0BF7B0EBC74072EB14
:10103000573203FB0CF734BFA2EBC742B2EBC742F7
:1010400061EB57310CFB0EF7B0EBC70072EB577238
:101050000CFB08F734BFA2EBC702B2EBC70261EB8F
:101060005771039F4FEA816141EA921104EBCC046E
:101070004FEAD1374FEA826206FB07FC42EA901240
:101080004FEA80604FEA1C4C0CFB0BF7D21B03FBB2
:101090000CF761EB07010CFB0EF7B0EB074072EBAE
:1010A00017420CFB08F734BFA2EB0742B2EB074232
:1010B00061EB17414FEA8C554FEA910704EB9C24F2
:1010C00006FB07FC4FEA1C4C0CFB0BF7B0EBC740D0
:1010D00072EB573203FB0CF734BFA2EBC742B2EB03
:1010E000C74261EB57310CFB0EF7B0EBC70072EB58
:1010F00057720CFB08F734BFA2EBC702B2EBC70272
:1011000061EB577115EB4C254FEA816141EA921171
:101110004FEA82624FEAD13742EA901206FB07FC9F
:1011200044F100044FEA80604FEA1C4C0CFB0BF7C3
:10113000D21B03FB0CF761EB07010CFB0EF7B0EBC6
:10114000074072EB17420CFB08F734BFA2EB0742D3
:10115000B2EB074261EB174115EB1C154FEA8131E9
:1011600041EA92414FEA823242EA90424FEA8030AD
:101170004FEA0C7644F1000448EA03434EEA0B4878
:101180004FF0000EB2EB080C71EB030724BF624670
:1011900039464EEB0E0E4FF0000B001852414941FC
:1011A0004BEB0B0BB2EB080C71EB03077BF1000B65
:1011B00024BF624639464EEB0E0E4FF0000B00186E
:1011C000524149414BEB0B0BB2EB080C71EB03079F
:1011D0007BF1000B24BF624639464EEB0E0E51EAFE
:1011E000020718BF46F0010616EB0E7655F1000215
:1011F00054F1000103D5BDE88901BDE80088BDE8D0
:101200008901BDE80048B619524141EB0101A3F143
:101210000103704780807F7E7D7C7B7A797877764A
:1012200076757473727171706F6E6E6D6C6C6B6AC3
:101230006A69686867666665646463636261616061
:10124000605F5F5E5E5D5D5C5C5B5B5A5A595958DE
:101250005857575656555555545453535252525148
:10126000515050504F4F4F4E4E4D4D4D4C4C4C4B9E
:101270004B4B4A4A4A4949494848484747474746E5
:101280004646454545444444444343434342424221
:1012900042414141002B9C4630D477002BD01CB5F5
:1012A0004FEA370703B44FF010004FF01001BAF1C6
:1012B000000F06D0BCF1000FDCBF40F0080040F08A
:1012C00008014FF000000FBCBDE810400BF1010B0E
:1012D000BBF1010F08BF5FEA170722BF12F101023D
:1012E00011F101014FF0004143F1000300F0004013
:1012F00043EA00007047F9D35708D0E746EA0646AC
:1013000013F1400F4FEA16461FDD13F1200FDFBF28
:1013100016430A46002120335B42BED0C3F12007AA
:1013200046EA064602FA07F74FEA164646EA070675
:10133000C3F1200722FA03F201FA07F721FA03F1B9
:101340004FF0000342EA0702A7E746EA020646EA30
:1013500006464FEA164646EA0106BCBF46EA06467E
:10136000360C4FF000034FF000024FF0000194E7FD
:101370002DE9804C9A46934670B491E8380007C82E
:1013800031EA400C48BF34EA430C03D5FFF7E6FDD1
:10139000FFF780FFF0BCBDE8008C2DE9804C9A4639
:1013A000934670B491E8380007C810F0804F08BF2A
:1013B00013F0804F03D100F005F8FFF76BFFF0BC8E
:1013C000BDE8008C20F07F4780EA030023F07F4CCB
:1013D00007EB0C03A3F57C5300F00040A3F1FE03E0
:1013E00092F0000F00F0B38095F0000F00F07780CE
:1013F0002DE901494FEA11404FEA144621EA00481D
:1014000000FB06FC24EA064708FB06F607FB08F883
:1014100000FB07F718EB06484CEB164C4FEA124B53
:1014200018EB07484FEA15464CEB174022EA0B4EE3
:101430000BFB06FC25EA06470EFB06F607FB0EFE35
:101440000BFB07F71EEB064E4CEB164C4FF000065D
:101450001EEB074E4CEB174B18EB0B0840F100004E
:1014600018EB0E0B58EB000840F100008F1A4FF0FC
:1014700000013CBFC943661B14BFB5EB040C00213F
:101480003CBFC943F61B4FEA17444EEA8E0E27EACB
:1014900004454FEA1C4704FB07622CEA074C05FB96
:1014A00007F70CFB05F604FB0CFC16EB074642EBBA
:1014B000174216EB0C4642EB1C421BEB060658EBA0
:1014C0000202414146EA9E0601D5BDE80189B619EE
:1014D000524141EB0101A3F10103BDE801894FEA4B
:1014E00014454FEA114724EA054621EA074C05FB5B
:1014F00007F406FB07F70CFB06F105FB0CFC11EBF0
:10150000074144EB17444FEA124711EB0C4144EBFF
:101510001C4422EA074C05FB07F206FB07F70CFB0D
:1015200006F605FB0CFC16EB074642EB174216EBE2
:101530000C4642EB1C456A1854F1000148BF704745
:10154000B619524141EB0101A3F10103704795F037
:10155000000F37D04FEA11424FEA144721EA024602
:1015600024EA074C02FB07F106FB07F70CFB06F425
:1015700002FB0CFC14EB074441EB17414FEA154703
:1015800014EB0C4441EB1C4125EA074C02FB07F528
:1015900006FB07F70CFB06F602FB0CFC16EB0746F6
:1015A00045EB174516EB0C4645EB1C42121951F161
:1015B000000148BF7047B619524141EB0101A3F148
:1015C000010370474FEA14454FEA114724EA0546E4
:1015D00021EA074C05FB07F106FB07F70CFB06F2B7
:1015E0004FF0000605FB0CFC12EB074241EB1741E4
:1015F00012EB0C4251EB1C4148BF7047921841EB73
:101600000101A3F10103704708B5684601F0A8FC89
:10161000009800214FF07E5281604FF40071C1604C
:101620000B49C1630B4941630B4981630B21816401
:101630000221416209490164012180F85410826548
:10164000074AC2653222026680F8641008BD0000B5
:1016500000004842000096430000964400004843C2
:101660000050434770B590B000F0D0FB00F008FC8C
:10167000002401258DF825408DF824508DF8274051
:101680000895CDE9064505948DF8265005A800F08B
:10169000D6F802208DF80040019004260290CDE992
:1016A0000306684600F094FA8DF80050684600F092
:1016B0008FFA0122951E2946104600F0B5FB012243
:1016C0005106002000F0B0FB284600F0C3FB2020AC
:1016D0000A9005200E940D94CDE90B060AA800F09F
:1016E0008AF8034801F024F810B0002070BD000013
:1016F000E5470A00D0E90012008941EA022141EAE7
:10170000004142F2A81001F0A5B910B504460188C5
:1017100042F2A80001F09EF9618842F2AC0001F0AB
:1017200099F9A18842F2B00001F094F9E188BDE88E
:10173000104042F2B40001F08DB970B5044642F297
:101740004405284600F0F4FD00F08001E0680843FD
:10175000217C012901D140F01000617C012901D1D7
:1017600040F04000616840EA0120216840EA013011
:10177000A16840EA8131284601F06CF9207D0028FB
:1017800005D0BDE870400121080400F001B870BD2B
:1017900070B504464FF400550E46284600F0C8FDCB
:1017A00024F02001012E4FEA846211D0002A02DACF
:1017B00040F020000C46210303D540F4002024F41F
:1017C0000024A04301462846BDE8704001F042B91C
:1017D000002A02DA20F020000C46210303D520F471
:1017E000002024F400242043ECE740EA810142F287
:1017F000F02001F02FB910B50446006800F00FF892
:10180000606800F014F8A06800F00DF8E06800F0DF
:1018100012F82169BDE81040142001F01BB90146FF
:10182000002001F017B901460C2001F013B9014660
:10183000042001F00FB90146082001F00BB92DE991
:10184000F04105464FF42166304600F071FD044634
:10185000E87C4CF6143740F60C2801280ED144F0F1
:1018600004043946404601F0F5F82146304601F0BF
:10187000F1F8304600F05CFD4005FAD5287C0128DF
:1018800014D144F002043946404601F0E3F8214601
:10189000304601F0DFF8304600F04AFD8005FAD509
:1018A000687C012800D0002000F026FAA87C0128DE
:1018B0000ED144F001043946404601F0CBF82146F0
:1018C000304601F0C7F8304600F032FDC005FAD5C9
:1018D000287A297B00F03F0001F00F0140EA8111D6
:1018E0004FF4816001F0B6F80A2000F061F9D5E903
:1018F000000140EA810140F2144001F0ABF8E87CBD
:1019000008B924F00404287C08B924F00204A87C57
:1019100008B924F001043946404601F09BF82146FD
:101920003046BDE8F04101F095B800002DE9F043E4
:101930009BB00E46044600253422544909A802955E
:10194000FEF714FE514817AF3430002C0FC887E85B
:101950000F00356075D0002E73D0E3680B2B70D864
:10196000A268022A6DD8216903296AD8D4F800C078
:10197000022701204FF00409BCF1050F5FD2DFE818
:101980000CF0030D24633700606800EB80008000DA
:1019900005F04EFBE16905F093FB12E017A96068C2
:1019A00051F82210801C4843401C00EB800080004E
:1019B00005F03EFBE16905F083FB4FF07C5105F03B
:1019C0009FF905F0CDFA029039E009AA616852F852
:1019D0002320491C5143491C0291206002986060F9
:1019E00002A92046FFF7A2FF276002980F30EAE71E
:1019F000207E0690A0680390E0680490002516A958
:101A000003A800F055FB18B19DF85800401EC5B260
:101A100001A903A800F0B0FB20B19DF80400284400
:101A2000401EC5B22760606802A928446060204655
:101A3000FFF77CFFC4F800906068401B606002986C
:101A400030601BB0BDE8F083626992B1012A06D014
:101A5000022A02D0032A07D112E0256000E02060AC
:101A600002A92046FFF762FF032020600298193088
:101A7000A9E7607E08B12760F2E7C4F80090EFE7BD
:101A800020606068491C88406060E9E7AC74000829
:101A9000024900200870012070470000010000206A
:101AA0002DE9F04756680F468246154631463046C6
:101AB00005F006FB2D6804462946084605F000FBA4
:101AC000214605F01DF9D7F804800446314640460A
:101AD00005F0F6FA3F6881462946384605F0F0FAE7
:101AE000494605F00DF9214605F078F98146314661
:101AF000384605F0E5FA06462946404605F0E0FA84
:101B0000314605F0DBFB214605F068F9CAE9009093
:101B1000BDE8F08700221021014801F0F9BE000065
:101B20000008014001221021014801F0F1BE00002F
:101B30000008014070B5044642F2440600253046D4
:101B400000F0F6FB616803290ED020F080013046DA
:101B500000F080FFA08845EA0055206845EA0011A2
:101B6000207A012806D007E040F08001304600F0DE
:101B700071FFF2E741F00101BDE8704042F2D00090
:101B800000F068BF10B50446FFF7B4FD04F10C0087
:101B9000FFF7D3FD04F12400FFF7B7FD04F12C009B
:101BA000FFF7C8FF04F13800BDE8104000F0C5BDE4
:101BB0000A2003F0EDBA10B542F21C1400212046B1
:101BC00000F048FF2046BDE81040012100F042BF70
:101BD00070B5044642F208050021284600F03AFF9D
:101BE00042F2D816304600F0A3FB616800F03F00D7
:101BF00040EA4120A16840EA8111304600F02AFF06
:101C0000208A010442F2E01000F024FF2178002035
:101C1000012900D1C802E16840EA41312846BDE807
:101C2000704000F017BF0022012900D1CA0242EA29
:101C3000403142F2080000F00DBF10B54FF40850DB
:101C400000F076FB000C10BD70B50D46064603296A
:101C50001FD2FFF75FFF202000F0B6FB42F26C00BE
:101C600000F086FBFFF75EFF00240FE0FFF752FF56
:101C70006D2000F0A9FB002000F0A6FB002000F082
:101C800086FB46F82400FFF74DFF641CAC42EDD301
:101C900070BDFFF73FFF5F2000F096FB002400209F
:101CA00000F092FB641C062CF9D30024AD1E05E065
:101CB000002000F06CFB46F82400641CAC42F7D313
:101CC0004FF04435284600F062FB46F824002846D1
:101CD000641C00F05CFB46F82400BDE87040FFF790
:101CE00021BF010442F2E01000F0B4BE01480078C8
:101CF00070470000010000202DE9F04105464FF437
:101D00008266304600F014FBC0F34021C0F300228D
:101D10000902C0B241EA4224044344F020013046A3
:101D200000F098FE42F2BC07384600F001FB29465D
:101D30004FF42165012910D040F00401384600F02D
:101D400089FE284600F0F4FA8005FAD524F0200137
:101D50003046BDE8F04100F07DBE20F00401384679
:101D600000F078FE284600F0E3FA8005FAD5EDE7AA
:101D700002680021012A00D111034268012A01D121
:101D800041F00101007A41EA400142F2100000F006
:101D900061BE10B504461030FFF7EAFF04F15000B1
:101DA00000F009F8204600F0A5FC04F11C00BDE895
:101DB000104000F099BD10B504000BD060696FF0C1
:101DC0000101032804D30B2802D8A069052804D9EF
:101DD000084610BD6FF0020010BD42F2FC00216801
:101DE00000F038FE6168E06841EA4011207C01287B
:101DF00001D141F0100142F2F00000F02BFED4E9D5
:101E00000512002003F0EEF8002010BD10B500F020
:101E1000F9FAC820FFF7CCFE00F0FCFABDE810404C
:101E20004FF4FA70FFF7C4BE70B516460D4643F284
:101E30000804012800D1241D204600F079FA012E63
:101E400006D0A84301462046BDE8704000F002BE1F
:101E50002843F7E7014643F2040000F0FBBD000011
:101E600010B50C4640B143F2140000BF00F060FA18
:101E7000204000D0012010BD43F21000F6E7000022
:101E800070B59CB0702222496846FEF76FFB21486E
:101E90000024C460446184610470FFF743FE0025A0
:101EA0004FEA0D0606EBC500416836F8350000F034
:101EB000D1FD6D1C0E2DF5D340F2044000F038FA30
:101EC000014645F201520120134D91420AD0A1F57D
:101ED000AA42023A06D0B1F5AA4F05D00FA0FEF7EC
:101EE000BDF9FEE7287000E02C7019A0FEF7B6F9E6
:101EF000287808B11AA100E01AA11BA0FEF7AEF9DC
:101F000001230222002120A0FEF7A8F91CB070BD19
:101F100064750008F8030020000000204348495081
:101F200049442072656164206572726F723A30783C
:101F3000253034782E2041443539343020697320DF
:101F40006E6F742070726573656E743F0A000000D6
:101F50005468697320414435393478210A000000FF
:101F600053320000533100004E6F74653A204375C0
:101F70007272656E742053696C69636F6E20697349
:101F80002025730A000000004144353934304C49A3
:101F9000422056657273696F6E3A7625642E256409
:101FA0002E25640A0000000010B504460020217EA2
:101FB00001B90220617E09B940F0010021690429BC
:101FC00017D040EAC100E16840EA4110A16840EA48
:101FD0008120616840EA4131206868B142F2E8003E
:101FE00000F038FD616942F2E000BDE8104000F009
:101FF00031BD40F00400E6E742F2EC0000F02AFDBB
:1020000042F2E4006169F0E701F03F01C0F30B0028
:1020100040EA013142F2201000F01CBD01F03F0106
:10202000C0F30B0040EA013142F22C1000F012BD67
:1020300010B504464068A168800140EA0110E168DB
:1020400040EAC100616940EA8101207E08B941F09F
:102050000101607E08B941F00201206880B142F2BE
:10206000341000F0F7FC217F608BFFF7D7FF206969
:1020700040F0200142F23010BDE8104000F0EABC10
:1020800042F2281000F0E6FC217F608BFFF7BCFFD6
:10209000206940F0200142F22410EDE710B504461B
:1020A000FFF7C6FF04F12000BDE81040FFF77CBF3A
:1020B00010B50C46C16886B0012902D029B12ED0D6
:1020C00042E00168022903D02CE00168022911D006
:1020D0001FA16B46D1E90021CDE901211EA1D1E963
:1020E0000021CDE903210079052228E003A89DF80D
:1020F00000100FE01AA102AB0968009119A1032298
:10210000096801910079694603F033F8E0B19DF860
:10211000081001A8405C2070012006B010BD0168C5
:10212000022911D010A26B46D2E90012CDE90112AA
:102130000FA2D2E90012CDE903120079062201A90B
:1021400003F017F80028D1D100202070E5E7000047
:10215000050708090B0000000F0C0A090600000023
:10216000090A0B00120F0C0003040506080A000000
:10217000120C06050403000010B50C46C16886B0B9
:10218000012902D029B11FD03AE00168022903D009
:102190001DE00168022908D01BA1096800911BA15C
:1021A00007E001A89DF8081025E019A10968009131
:1021B00018A102AB0968019100790222694602F078
:1021C000D8FF0028EDD11BE00168022918D012A227
:1021D0006B46D2E90012CDE9011211A2D2E9001238
:1021E000CDE903120079062201A902F0C2FF38B13D
:1021F0009DF8001003A8405C2070012006B010BDBF
:1022000000202070FAE70000070B00000A0500001C
:10221000090B00000F0A000003040507090B00006A
:102220000F0A05040302000070B504464FF4005580
:10223000284600F07DF820F02001207808B941F010
:102240002001284600F006FC4FF40655284600F011
:102250006FF801466078012801D141F00101A078B2
:10226000012801D141F01001E078012801D141F0AD
:1022700004012079012801D141F02001607A012870
:1022800001D141F48071A07A012801D141F002010D
:10229000E07A012801D141F00801207B012801D119
:1022A00041F04001284600F0D5FBA079002100B99B
:1022B0000221607908B941F00101E079012801D1DA
:1022C00041F00401BDE8704042F2500000F0C2BB92
:1022D00008B510A0FDF7C2FF134E4FF47A754FF406
:1022E0000074284601F004FAFFF700FD0028F8D03A
:1022F000FFF7CEFB69460D48009400F03BFE3046E8
:10230000FFF756FC0948009901F02CF9002000F075
:102310007EF9E6E7BFAACABCB2E2C1BFB5E7B3D84F
:10232000D7E8BFB90D0A0000A08601001404002000
:1023300038B50E4D2978012903D0BDE8384000F0AA
:10234000B3B90446694600F017F940B1204600F0E1
:10235000ABF905460146204600F062F904E0286921
:10236000009950F82100050A284638BDF8030020DE
:102370001CB5010A8DF800108DF80100022201A998
:10238000684600F02DF8BDF8040040BA1CBD1CB52D
:10239000010E8DF80010010C8DF80110010A8DF866
:1023A00002108DF80300042201A9684600F018F815
:1023B000BDF804009DF8061040BA000440EA012070
:1023C0009DF8071008431CBD1CB501228DF80000C4
:1023D00001A9684600F004F89DF804001CBD000047
:1023E00008B54FF0FF33009393B20A460146044804
:1023F00001F03CFEBDE80840012002F0C9BE00002B
:10240000240C002000220421014801F081BA0000C0
:10241000000C014001220421014801F079BA0000BA
:10242000000C01402DE9F041044642F2080528461F
:10243000FFF77EFF07460021284600F00BFB42F223
:10244000D8163046FFF774FF20F03F00216840F0B7
:1024500008000143304600F0FDFAE0792E1F40B13C
:102460000021304600F0F6FA002142F2640000F04C
:10247000F1FA21790020012900D10120A16840EA68
:102480000121304600F0E6FA39462846BDE8F04121
:1024900000F0E0BA2DE9F04114460D46074642F23D
:1024A000D41642F2700808E039467F1C304600F02E
:1024B000D1FA02CD404600F0CDFA641EF4D2BDE858
:1024C000F081000070B50B4A002001469468536902
:1024D0000DE000BF54F82150AA0F960701D4D2078F
:1024E00001D0401C02E025F040421044491C8B42C0
:1024F000F0D870BDF8030020044A002120B1D1605B
:10250000012091611070704711707047F80300202E
:10251000044A08B19368036009B1D0680860906903
:1025200070470000F803002002290BD3064AC2E9D5
:10253000011000EB8100001F10610020D06050618D
:102540009061107070470000F8030020094910B531
:102550004B69CA684C6813449C4206D98B6843F89F
:102560002200C868401CC86010BD6FF0030088617D
:1025700010BD0000F803002030B50A4AC0F38704FC
:1025800000201369D26807E013F82050A54202D159
:102590000860002030BD401C8242F5D86FF0060074
:1025A00030BD0000F803002010B50446006830B1CB
:1025B00001280BD002281BD003280FD11FE021894E
:1025C000606840EA014142F2CC1005E02189606870
:1025D00040EA014142F2E81000F03CFA207B012879
:1025E00014D1D4E901022169BDE81040FFF752BFC0
:1025F0002189606840EA014142F2D010ECE721896C
:10260000606840EA014142F2E410E5E710BD0328AA
:1026100005D8012181404FF4866000F01BBA704755
:102620000C4A10B5D4685369234454689C420DD9B0
:10263000136980081B1F136118701069036861F328
:102640001F2303605069401C506110BD6FF00300F0
:10265000906110BDF8030020F8B5124F0C460646F5
:10266000B0F5085F03D36FF00400B861F8BD6946A8
:10267000FFF782FFC6F3860558B121463046FFF7C3
:10268000CFFF00BF65F31F6444F00040FFF75EFF1B
:10269000F8BD3869009950F8212064F31F2240F8F2
:1026A0002120EFE7F803002010B50446FFF732FAC7
:1026B0002020FFF789FE2046FFF75AFEFFF732FA87
:1026C000FFF728FA6D20FFF77FFE0020FFF77CFE62
:1026D00042F21400A4F5805484424FF0000002D866
:1026E000FFF755FE01E0FFF743FE0446FFF71AFA35
:1026F000204610BD10B50446016842F2501000F0AB
:10270000A9F942F25810616800F0A4F942F254109D
:10271000A16800F09FF942F25C10E16800F09AF9BC
:10272000BDE810404FF4803142F20C0000F092B945
:10273000014642F2181000F08DB9027A0021012AF8
:1027400000D101214268006841EA021141EAC0114A
:1027500042F2C41000F07EB92DE9F0470446027C35
:102760008A46D4E901010025DFF87891002A5ED07D
:1027700004F072FC616929D2491C6161E068814200
:1027800000D16561401E03F030FF05468846D4E95C
:10279000011004F023FB04F087FA02F0D1FE074693
:1027A0000E46606903F021FF3A46334603F06CFFA2
:1027B0002A46434603F06EFD0B460246002049467A
:1027C00002F052FF05460E46606829E0491E61612D
:1027D000E068814201D3411E6161401E03F005FFA4
:1027E00005460E46D4E9010104F0F8FA04F05CFA5B
:1027F00002F0A6FE2A46334603F04CFD05460E467F
:10280000606903F0F2FE2A46334603F03DFF0246BC
:102810000B460020494602F027FF05460E46A068F9
:1028200004F042FA2A46334603F02EFF53E004F048
:1028300013FC616926D2491C6161E068814200D1C4
:102840006561401E03F0D1FE0646D4E9019088463A
:10285000494604F033FD04F027FA07460D46606947
:1028600003F0C3FE3A462B4603F00EFF32464346C2
:1028700003F010FD04460D46484604F015FA2246C2
:102880002B4626E0491E6161E068814201D3411E6A
:102890006161401E03F0A9FE8046D4E901090E469D
:1028A000494604F00BFD04F0FFF907460D46606948
:1028B00003F09BFE3A462B4603F0E6FE42463346C3
:1028C00003F0E8FC05460C46484604F0EDF92A46BC
:1028D000234603F023FC03F0EFFBCAF80000BDE839
:1028E000F08700000000244010B50446006802286C
:1028F0000BD003281CD042F24800216B00F0AAF84C
:1029000021790020012930D030E042F23000216AE4
:1029100000F0A0F842F23C00616A00F09BF842F23D
:102920003800A16A00F096F842F23400E16AE5E767
:1029300042F21800A16800F08DF842F21C00E16834
:1029400000F088F842F22000216900F083F842F29A
:102950002800616900F07EF842F22400A16900F0CD
:1029600079F842F22C00E169C8E720206179012959
:1029700001D140F010002168BDE8104040EA41015B
:1029800042F2140000F066B810B500F007F80146F6
:10299000BDE8104042F2300000F05CB870B5064669
:1029A00016481A240D460078012800D11E2415F07F
:1029B000FF401DD0224601200021FDF73CFC04F021
:1029C0000AFB314604F07CFB294604F007FA4FF07D
:1029D0007C5104F095F904F0C3FA09496FF07F4285
:1029E0001A2C06D01346834202D21A2C03D010466A
:1029F00070BD0B46F7E7084670BD000000000020E0
:102A0000FFFF0F0070B504464FF400652846FFF73E
:102A10008FFC80B220F00101012C01D141F00101B5
:102A20002846BDE8704000F015B82DE9F041054694
:102A300000244FF4806744F244163846641CFFF7C4
:102A400077FCB04203D0002DF7DDAC42F5D920462B
:102A5000BDE8F08170B5154A1278012A1AD00546F2
:102A60000C46FFF757F82020FFF7AEFC2846FFF78B
:102A70007FFCFFF757F8FFF74DF82D20FFF7A4FC78
:102A800042F21400A5F58055854207D82046FFF78D
:102A90007EFC06E0BDE87040FFF7DEBDA0B2FFF7A8
:102AA00067FCBDE87040FFF73DB80000F803002068
:102AB00010B5FEF7D7FDFEF7A7FD0CA0FDF7CEFB86
:102AC0004FF40071124800F093FA0021052000F045
:102AD000FFF80021084600F0FBF80EA0FDF7BEFB52
:102AE000BDE8104015A0FDF7B9BB00000ABFAACA97
:102AF000BCD7D4D0A3D7BC53746172742073656CF7
:102B0000662063616C6962726174696F6E0D0A00A0
:102B1000140400200AD7D4D0A3D7BCCDEAB1CF5338
:102B2000656C662063616C6962726174696F6E20A6
:102B3000636F6D706C657465640D0A00B3F5CABC93
:102B4000BBAFCDEAB1CF0D0A0000000010B5FFF712
:102B50005DF9FFF795F94FF48060FFF7E9FB044654
:102B6000014609A0FDF77AFBA4F58240443801D064
:102B70000EA000E014A0FDF771FBFEF7D3FFBDE847
:102B80001040FFF747BC0000526561642041444992
:102B900049442072656769737465722C20676F748D
:102BA0003A2030782530346C780A00005265616430
:102BB000207265676973746572207465737420662A
:102BC00061696C65642E0A005265616420726567F4
:102BD0006973746572207465737420706173730A0D
:102BE00000000000F0B5354A06210026344C0125CE
:102BF00003279DB0904203DC0A2084F845000AE0D8
:102C0000304A904202DA84F8451004E02E4A90429D
:102C100005DA84F8457084F84450E66407E02B4AEE
:102C2000904204DA84F8445084F84570E564072043
:102C300009960A968DE82300CDE9057594F84500BC
:102C4000049094F8440003908DF81D608DF81C509A
:102C50008DF82050A06C0B90E06C0C9094F8500014
:102C60008DF834000E960F96684634341096FEF7B1
:102C700089FF1197A0691690207D801C85401295D0
:102C8000607C1490207C1596139054F8141C54F812
:102C90001C0C04F0A3F8189019A911A8FEF746FE21
:102CA0001999206E21F040411A9101221AA9001DA4
:102CB000FFF7F0FB1DB00020F0BD00005C8F023F6D
:102CC000040000200000A0400000E14300409C47B9
:102CD0002DE9F04100254D4C94B06FF0080742F209
:102CE0005C3642F2540807282DD2DFE800F00432A7
:102CF0003E8D4C6142000A20FFF797FE0A285CD8FF
:102D000094F8780000B301213046FFF7A3FE0021BC
:102D10004046FFF79FFE022001F0D6FE032001F09F
:102D2000D3FE00210220FEF77EFF606AFEF7D9FF86
:102D300001210220FEF777FF022020600020FFF72C
:102D400066FCC4F8A8505FE06FF0630014B0BDE803
:102D5000F0810A20FFF769FE0A282ED80020FFF72D
:102D600051FE0020FFF74EFE4EE0012084F8A40043
:102D70004AE0E1B394F85400012802D0206C0860C6
:102D800042E0606FFBE700210120FFF7A1FF0F95F4
:102D9000109511950FA81295FFF746FA3C21684649
:102DA000FDF716FC6846FFF779F9FEF704FF2BE004
:102DB0000A20FFF73AFE0A2801D93846C6E7002163
:102DC0003046FFF747FE04214046FFF743FE01204F
:102DD00001F07AFE032001F077FE00210220FEF7C9
:102DE00022FF0220FEF77DFF0121022000E00BE020
:102DF000FEF719FF01210648FEF7CAFC42F21070E7
:102E0000FEF7D6FE00F07AF900209FE704000020CC
:102E1000604611002DE9FF5F0E46096881464D08A6
:102E2000002721F001034C463946DFF82CC13760FA
:102E30000EE000BF50F82120C2F3110240F821201B
:102E40005FEA823803D542EA0C0240F82120491C8F
:102E50009942EFD3DFF80481D8F80000012802D0AE
:102E6000022832D058E0C8F8B870B946C8F8B47033
:102E7000002715E054F8370004F092F8D8F8B410A1
:102E800003F03EFFC8F8B40004EBC700406804F04C
:102E900087F8D8F8B81003F033FF7F1CC8F8B800E3
:102EA000AF42E7D3284604F0C3F805464446294616
:102EB00054F8B40F03F092FF20602946606803F0D5
:102EC0008DFF6060C6F8009026E0002721E02068B2
:102ED00004F066F80090606804F062F81F4A019000
:102EE000B432694602A80834FEF7DAFDDDE902B023
:102EF000D8F83C108A4604F0E3F802905146584650
:102F000004F0DEF8014609EBC70202987F1CC2E913
:102F10000010AF42DBD3356098F8541040460129C9
:102F200016D1C16E4167016FC1660168022909D1DE
:102F3000816E00EBC10151F8BC2FC0F8B420496884
:102F4000C8F8B81005497031A1F11C00FFF704FC66
:102F500004B00020BDE8F09F0000FCFF040000204A
:102F600018B103490160002070476FF001007047FD
:102F700004000020F8B506461B480C4690F878007F
:102F800038B10A20FFF751FD0A2805D96FF0080073
:102F9000F8BD6FF06300F8BD0020FFF7C9FB00200B
:102FA0004FF00075206029460120FEF759FF0128E7
:102FB00017D1FEF742FE20F0010130460091FEF7E6
:102FC00043FE2846FEF746FF6946304600F016F9F4
:102FD0000648FFF7ADFB69463046FFF71BFF009838
:102FE00020600020F8BD000004000020E5470A0032
:102FF0002DE9F041804688B00F460A20FFF715FD05
:103000000A2804D96FF0080008B0BDE8F081002557
:1030100001268DF805508DF806508DF80760009652
:103020008DF8045068460295FFF7FCF90021022054
:10303000FEF7F9FD0220304C8DF80C6004900590ED
:103040000690606A079003A8FEF7C2FD681EFEF7AF
:1030500001FF94F8780010B12079012813D16FF0A6
:103060000100B8F1000FCFD0002FCDD03946404637
:10307000FFF75AFA00F0E6F80028C5D100F0D0F9C1
:103080000028C1D125711C4884F888507C30FFF796
:103090008BFA8DF804606846FFF7C4F9E06FFFF71C
:1030A000B6FA4FF4004739460120FEF7D9FE002852
:1030B000F9D094F8540001281CD0206CFFF792FD41
:1030C0000D4884F89C509030FFF76EFA8DF804603C
:1030D0006846FFF7A7F9FEF7DBFC0321206BFEF73C
:1030E00084FB022142F25C30FFF7B4FC84F8786084
:1030F000002089E7A06DE1E7040000202DE9F043FE
:1031000000224FF00079E7B049461046FEF78CFEEA
:103110002F4C0120206094F85400002840D0002556
:1031200034E00020FFF773FA4E4631460120FEF7E7
:1031300097FE0028F9D0E06E03F0B6FDA66E0246B9
:103140000B46314623A0FDF789F866A902A8FFF7D0
:1031500011FF04EBC501D4F8B40041F8BC0F804660
:10316000D4F8B800486003F09FFD06460F4640467D
:1031700003F09AFD02460B461BA0CDE90067FDF760
:103180006DF842F21070FEF713FD6D1C206EA84220
:10319000C7D8D4F8BC0044F8B40FE06860600DE014
:1031A0000020FFF734FA4C4621460120FEF758FE76
:1031B0000028F9D066A902A8FFF7DCFE01224946E3
:1031C0000020FEF731FE67B00020BDE8F08300006C
:1031D00004000020693A2025642020204672657191
:1031E0003A20252E32662000205263616C566F6CA7
:1031F000743A2825662C2566290A000010B5104C63
:10320000E06A002808DDD4F8A820096802EB9101E3
:10321000C4F8A81081420FD294F8A40001280BD062
:1032200094F8540030B1A169206FFFF7ADFB206F17
:10323000FFF7D8FC002010BD0020FFF7E3FBF9E703
:10324000040000202DE9F047C4B00120FFF754F935
:1032500000216B48FEF79CFA002601258DF8F450FA
:103260008DF8F8608DF8F6508DF8FF608DF8F95004
:103270008DF8F5508DF8FD608DF8FA508DF80061ED
:103280008DF8FE608DF8F7608DF8FB603DA8FEF7C5
:10329000CBFF1B200496CDE9056005201A9002277C
:1032A0000B2019904FF01F094FF0030ACDF85C90E6
:1032B000CDE9146A0797CDE902561020CDE9000741
:1032C000504C8DF820608DF860608DF8216094F886
:1032D000540001287BD0206C6067A169FFF75EFB7A
:1032E0000F904949606B03F079FD484903F0E8FE0F
:1032F0004FF07C5103F004FD03F032FECDE91006DF
:1033000068461296FEF745FD2E96CDE92F654FF0E3
:1033100006083396CDE931588DF8D0608DF8D1503C
:103320003B49A06B03F0CAFF3A4903F057FD3A4905
:1033300003F0C6FE03F014FEADF8D200ADF8D49051
:103340008DF8F06036963A968DF8F150CDE93776E3
:103350004FF428703B9039962EA8FEF79FFECDE9DA
:103360001E85072027961D90CDE922A5269694F864
:103370004500219094F8440020908DF891608DF8DC
:1033800090508DF89450A06C2890E06C299094F89F
:1033900050008DF8A8002B962C961DA82D96FEF7B0
:1033A000F1FB01211D48FEF7F3F94FF00140FFF753
:1033B000CDF842A941A8FFF7ABF806460020FFF779
:1033C0009BF87EB1304644B0BDE8F087FFE7A06DC2
:1033D0000C4960677031E066A1F11C00FFF7BCF991
:1033E000E06E7AE744F87C5F54F8740C60604199B1
:1033F0002161429AA260FFF74DF80020E3E7000048
:10340000E0FF3900040000200000484400E0FF44D1
:10341000000048430080094500F07F4560461100E8
:1034200070B58CB0394C03200090E06C059094F896
:1034300048100120891C8840019094F845000390B1
:1034400094F84400002504950290216AA06903F0D5
:10345000C5FC07900AA96846FEF768FA0120FFF745
:103460004BF84FF47A60FFF771F801212848FEF716
:103470008FF92848FFF76AF801214FF40140FEF761
:1034800087F90A9820F04040FFF760F800212248B1
:10349000FEF77EF909A908A8FFF73AF806460020CA
:1034A000FFF72AF8FFF70EF8C4F8AC000A3003F073
:1034B0009CF82A1F03F0ABFF184A194B03F0E4F8FD
:1034C00002460B460020174902F0E4FE02F0F4FD2C
:1034D000C4F8B000A26A0146104603F0BDFE02D255
:1034E000D4F8B000A06216B130460CB070BDC4F87C
:1034F0009050F4E920010844606108992162099A1A
:10350000A261FEF7C7FF0020EFE7000004000020E3
:103510008040010000350C00808101008DEDB5A0D8
:10352000F7C6B03E0000F03F70B505460C4E0C46A5
:10353000000707D5F1140CB1012200E0002230464B
:1035400000F0E6F9E8060AD54FF480510CB10122EB
:1035500000E000223046BDE8704000F0D9B970BDEF
:10356000000C01402DE9F04786B08A46054604A9C3
:103570000620FFF7ADFB002418E000BF05EBC400F8
:10358000406803F091FB8046894655F8340003F00B
:103590008BFB06460F46049803F086FB8DE8C003BC
:1035A00002460B4604A0FCF759FE641C5445E5D3C3
:1035B00006B00020BDE8F087467265713A202566A6
:1035C000202020287265616C2C20696D6167652957
:1035D000203D20202566202C2025662020206D4FB0
:1035E000686D0000FEE77047024901200870022064
:1035F00000F092B80100002072B602A0FCF72EFE87
:10360000FBE700006572726F72200D0A0000000077
:1036100010B590F821100022022905D00421816301
:1036200080F82020012010BD01680B6823F00E03F4
:103630000B6001680B6823F001030B6090F84030C9
:10364000C46B012101FA03F3636080F8211080F854
:103650002020104610BD000010B590F82110002465
:10366000022903D00421816301243DE001680A6836
:1036700022F00E020A6001680A6822F001020A6064
:103680001A4A0168914201D1012121E0174A1432FE
:10369000914201D110211BE0144A2832914201D1FC
:1036A000891515E0114A3C32914201D189140FE08D
:1036B0000E4A5032914202D14FF4803108E00B4A59
:1036C0006432914202D14FF4801101E04FF08071D9
:1036D000064A083A5160012180F82110002180F843
:1036E0002010416B01B18847204610BD0800024000
:1036F00070B5044600F012F90546601C02D004487B
:103700000078044400F00AF9401BA042FAD370BDCF
:10371000E803002070470000044910B50A6802421F
:1037200002D00860FFF7F6FF10BD0000140401404E
:103730002DE9F84FDFF8B8910024A9F1040B2346D6
:103740000F2709F1040AABF1040EC9E00125A540D9
:103750002A40AA427DD1674ED1F804C0ACEB0608DE
:10376000B44532D014DCBCF1030F3AD009DCBCF113
:10377000000F2AD0BCF1010F1CD0BCF1020F31D1D7
:103780001DE0BCF1110F17D0BCF1120F2AD119E0C6
:10379000B8F5881F19D006DCB8F5803F15D0B8F50C
:1037A000801F1FD111E0B8F5001F0ED0B8F5041F1F
:1037B00018D10AE0CB6815E0CB681B1D12E0CB687E
:1037C00008330FE0CB680C330CE08B682BB1012B76
:1037D0004FF0080303D0456104E0042302E00561D3
:1037E00000E00023FF2A01D8064601E000F10406AC
:1037F0004FEA840501D9A5F12005D6F8008007FA23
:1038000005FC28EA0C0803FA05F548EA0508C6F89D
:1038100000804D68ED0062D5374DAE6946F0010677
:10382000AE61AD6924F0030605F001050095334D46
:1038300006EB050CDCF80850A607360F07FA06F869
:1038400025EA0805DFF8B880404503D14FF00008AD
:1038500017E044E0DFF8AC80404502D14FF00108AA
:103860000FE0DFF8A480404502D14FF0020808E0E5
:10387000DFF89880404502D14FF0030801E04FF097
:10388000040808FA06F848EA0508CCF808804D68EC
:10389000D9F80060ED024D4601D5164300E096438D
:1038A0002E604D68DAF80060AD02554601D516432A
:1038B00000E096432E604D68DBF80060AD035D4686
:1038C00001D5164300E096432E604D68DEF8006097
:1038D000ED03754601D5164300E096432E60641C47
:1038E0000D682A46E5407FF431AFBDE8F88F00004F
:1038F00008040140000011100010024000000140C7
:1039000000080140000C014000100140001401407B
:103910000AB1016170470904FBE7000001488068B3
:1039200070470000E80300200248816802781144D3
:1039300081607047E8030020074810B5016841F036
:1039400010010160032000F075F80F2000F006F868
:1039500000F024F8002010BD0020024070B50D4D8D
:1039600004464FF47A712878B1FBF0F00A490968EF
:10397000B1FBF0F000F071FC48B9102C07D2002226
:103980002146501E00F036F800206C6070BD01200A
:1039900070BD0000E8030020F40300200C4808B5C7
:1039A000816941F001018161816901F001010091AA
:1039B000C16941F08051C161C06900F08050009040
:1039C0000448416821F0E06141F00071416008BDA8
:1039D0000010024000000140002809DB00F01F0237
:1039E000012191404009800000F1E020C0F8001161
:1039F00070470000F0B40E4B1B680C46C3F3022363
:103A0000C3F10705042D00D90425191D072901D28A
:103A1000002300E0DB1E012606FA05F1491E2140C5
:103A200099409E40761E16403143F0BC01F012BB17
:103A30000CED00E0064900F0070208684FF6FF03AE
:103A4000184040EA0220034A104308607047000013
:103A50000CED00E00000FA052DE9F0470F460500E7
:103A600061D0434E306800F00700B84209D2306898
:103A700020F0070038433060306800F00700B8429B
:103A800051D128683B4C810712D5400703D56068A7
:103A900040F4E06060602878000703D5606840F477
:103AA000605060606068A96820F0F00008436060C2
:103AB0002878C00728D06868012810D0216802281B
:103AC00010D0890700292EDA616821F00301014333
:103AD0006160FFF723FF804641F288390DE02168DD
:103AE0008903EFE78901EDE7FFF718FFA0EB080175
:103AF000494502D90320BDE8F0876068696800F095
:103B00000C00B0EB810FEFD1306800F00700B84235
:103B10000BD9306820F0070038433060306800F07F
:103B20000700B84201D00120E5E72878400705D515
:103B30006068E96820F4E060084360602878000766
:103B400006D56068296920F4605040EAC1006060D1
:103B500000F038F86168084AC1F30311515CC840AD
:103B60000649086006480068FFF7F8FE0020C2E733
:103B700000200240001002400A770008F4030020F1
:103B8000EC0300200448054900684968044AC1F371
:103B90000221515CC8407047F4030020001002402D
:103BA0001A7700080448054900684968044AC1F3C7
:103BB000C221515CC8407047F4030020001002404D
:103BC0001A7700080E4A51680E4801F00C03042BC6
:103BD00011D0082B0FD10C48C1F38343C903C05C3B
:103BE0000AD55168084AC1F34041921E515C054A0A
:103BF0005043B0FBF1F07047044948437047000060
:103C00000010024000127A00FA76000800093D0018
:103C10002DE9F84F040070D02078C04DC00749D07E
:103C20006868C0F38100012807D06868C0F381008C
:103C3000022809D16868C00306D52868800339D5F1
:103C400060680028E7D035E06068B0F5803F0BD0B1
:103C500010B1B0F5A02F11D0286820F48030286072
:103C6000286820F4802002E0286840F48030286032
:103C7000606890B1FFF752FE06460AE0286840F4FB
:103C800080202860F0E700BFFFF748FE801B642813
:103C900073D828688003F7D50CE0FFF73FFE06468F
:103CA00005E000BFFFF73AFE801B6428F0D82868C3
:103CB0008003F7D420789A4E80074FF001094FF027
:103CC000000839D5686810F00C0F07D06868C0F399
:103CD0008100022809D16868C00306D428688007DB
:103CE00014D52069012808D110E02069B0B1C6F8C8
:103CF0000090FFF713FE074605E00AE1FFF70EFE0E
:103D0000C01B0228C4D828688007F7D528686169D5
:103D100020F0F80040EAC10028600DE0C6F80080FD
:103D2000FFF7FCFD074604E0FFF7F8FDC01B022883
:103D300023D828688007F7D4207800072CD5794845
:103D4000A169D9B1C0F80090FFF7E8FD074604E08B
:103D5000FFF7E4FDC01B02280FD8686A8007F7D57B
:103D600071484FF4FA510068B0FBF1F0009000BFC9
:103D70000098411E0091FAD20EE080E0C0F8008069
:103D8000FFF7CCFD074604E0FFF7C8FDC01B022883
:103D900075D8686A8007F7D42078400760D5E8694D
:103DA0000027C00008D4E86940F08050E861E86965
:103DB000012700F0805000905C480168C90513D4C9
:103DC0000168834641F480710160FFF7A7FD8246D8
:103DD00006E000BFFFF7A2FDA0EB0A0064284ED862
:103DE000DBF80000C005F5D5E06801280AD008B16D
:103DF000052813D0286A20F001002862286A20F0E4
:103E0000040002E0286A40F001002862E06841F204
:103E1000883B98B1FFF782FD82460BE0286A40F0AC
:103E200004002862EEE700BFFFF778FDA0EB0A016F
:103E300059455AD8286A8007F6D50CE0FFF76EFD81
:103E4000824605E0FFF76AFDA0EB0A0159454CD810
:103E5000286A8007F6D41FB1E86920F08050E86135
:103E6000E06988B36968C1F38101022944D002285E
:103E7000C6F8608004D0FFF751FD044638E034E016
:103E8000FFF74CFD074604E0FFF748FDC01B022882
:103E90002BD828688001F7D4206AB0F5803F05D17F
:103EA0006868A16820F4003008436860D4E908011C
:103EB0000843696821F4741108436860C6F860908B
:103EC000FFF72CFD044606E025E000BFFFF726FDC6
:103ED000001B022809D828688001F7D51BE000BF25
:103EE000FFF71CFD001B022802D90320BDE8F88F54
:103EF00028688001F4D40EE00128F7D06868226AAF
:103F000000F48031914204D1616A00F4701088425B
:103F100001D00120EAE70020E8E70000001002409D
:103F20000000424280044242F4030020007000403E
:103F300070B5040009D0606A002540B12561656153
:103F4000A56294F8510040B10CE0012070BD60689A
:103F5000B0F5827FF4D0E561F2E784F85050204656
:103F600000F040F8022084F851002068016821F038
:103F700040010160A088218900F4827001F40441AD
:103F80000843A18901F400610843217C01F002018A
:103F90000843217D01F001010843218B01F40071E8
:103FA0000843217F01F03801084394F8201001F004
:103FB00080010843218D01F4005108432168086005
:103FC000A069042101EA1040216848602068C169A5
:103FD00021F40061C1616565012084F85100002071
:103FE00070BD000030B585B00024009401940294A7
:103FF000039400681549884226D11548816941F427
:1040000080518161816901F480510491816941F09D
:104010000401816180690F4D00F004000490A0202C
:104020000090022001900320039069462846FFF784
:104030007FFB4020CDE90004694628460294FFF743
:1040400077FB05A0FCF70AF905B030BD0030014050
:10405000001002400008014048414C5F5350495F46
:104060004D7370496E69740D0A0000002DE9FF4F11
:1040700081B0044690F8500000260E9F1D469346DE
:104080004FF0010901280FD04FF0010A84F850A029
:10409000FFF744FC804694F85100616801280DD078
:1040A000B1F5827F08D103E0022005B0BDE8F08FB2
:1040B000A16809B9042801D00226C9E002980028A5
:1040C00065D0BBF1000FFBD0002DF9D094F8510062
:1040D000042802D0052084F8510000206065C4F84F
:1040E00038B0E587A58702992163E586A586206417
:1040F000606420680168490603D4016841F040010A
:104100000160E068B0F5006F606803D0F0B3012D86
:1041100047D081E008B1012D3CD1206B2168008897
:10412000C860206B801C2063E08E401EE08631E07A
:104130002068816889070FD5E18E69B1B9F1010F57
:104140000AD1216B0988C160206B801C2063E08E3E
:10415000401EE0864FF0000920688168C9070CD036
:10416000E18F51B1C068A16B0880A06B801CA06377
:10417000E08F401EE0874FF00109FFF7CFFBA0EB77
:104180000800B84206D3781C04D001E009E05BE0E7
:1041900003265BE0E08E0028CAD1E08F0028C7D15B
:1041A00040E0206B216800780873206B401C20637E
:1041B000E08E401EE0862FE02068816889070FD5D9
:1041C000E18E69B1B9F1010F0AD1216B0978017350
:1041D000206B401C2063E08E401EE0864FF00009FB
:1041E00020688168C9070CD0E18F51B1C068A16B0C
:1041F0000870A06B401CA063E08F401EE0874FF06A
:104200000109FFF78BFBA0EB0800B84202D3781C32
:1042100002D0BAE7002FB8D0E08E0028CCD1E08FD2
:104220000028C9D142463946204600F075FC18B135
:104230000126202060650BE0A06818B92068C168DD
:1042400080680090606D08B1012601E084F851A0FB
:10425000002084F85000304627E710B5401EB0F12A
:10426000807F01D3012010BD4FF0E02460610F2159
:10427000601700F0EFFE0020A06107202061002001
:1042800010BD000070B590F83C20012A26D0012412
:1042900080F83C40022280F83D2003685A689D68FF
:1042A00022F070060A6832435A600D4B02689A4247
:1042B00008D0B2F1804F05D00A4B9A4202D00A4B87
:1042C0009A4204D1496825F080031943916080F82F
:1042D0003D40002180F83C10084670BD022070BDB2
:1042E000002C0140000400400008004010B504000C
:1042F00003D094F83D0010B107E0012010BD00206C
:1043000084F83C00204600F01FF8022084F83D00AD
:10431000211D206800F09CFC012084F8460084F8F0
:104320003E0084F83F0084F8400084F8410084F89F
:10433000420084F8430084F8440084F8450084F87F
:104340003D00002010BD000008B500680649884205
:1043500008D10648C16941F00401C161C06900F09B
:104360000400009008BD000000080040001002405A
:1043700070B5044690F83C000025012817D00126AE
:1043800084F83C60022084F83D002068826822F0B6
:10439000770222F47F4282600868502838D00DDC12
:1043A00020284FD005DC90B3102811D14AE002201C
:1043B00070BD302846D040280AD13BE060282FD07D
:1043C00070280DD0B0F5805F03D0B0F5005F12D03B
:1043D000012584F83D60002084F83C00284670BD2B
:1043E000CB68D1E90121206800F068FC2068816871
:1043F00041F0770109E0CB68D1E90121206800F0A4
:104400005DFC2068816841F480418160E1E719E04A
:10441000CA684968206800F063FC5021206806E003
:10442000CA684968206800F06CFC6021206800F0D0
:104430004FFCCEE7CA684968206800F051FC402173
:104440002068F4E7226801461046F0E7704770479D
:1044500010F8411F4078084370470000F8B5016824
:1044600004460868CA684B6910F00F0F4FF000054A
:1044700059D003F0010602F49077374365D0C107A5
:1044800005D0D10503D5616C41F00101616441079C
:1044900005D5D90703D0616C41F002016164810741
:1044A00005D5D90703D0616C41F0040161640107AF
:1044B00007D502F02001314303D0616C41F00801BF
:1044C0006164616C00293AD0800604D5900602D55B
:1044D000204600F057FC20684069616CC0F38010F2
:1044E000090700D460B3204600F025FC206840692D
:1044F000400621D52068143050E8001F21F040010B
:1045000040E80012002AF5D1E06BA8B16D49416383
:10451000E06BFFF7A1F8002811D0E06B416B01B010
:10452000BDE8F040084783060FD593060DD5204619
:10453000BDE8F84000F026BC2046FFF788FFF8BD34
:104540002046FFF784FF6564F8BD266B2023012E0B
:104550007CD1C6067AD5D60678D50868486800901A
:1045600048694FF00206400640D5E16B0868406894
:104570000004000CE8D0A28D8242E5D9E08588696C
:1045800020282DD020680C3050E8001F21F48071C5
:1045900040E80012002AF5D12068143050E8001FCE
:1045A00021F0010140E80012002AF5D12068143002
:1045B00050E8001F21F0400140E80012002AF5D128
:1045C00084F84230256320680C3050E8001F21F049
:1045D000100140E80012002AF5D1E06BFFF718F84F
:1045E0006663A08DE18D401A81B22AE0A08DE18D35
:1045F000401A81B2E08D0028A6D00029A4D02268FC
:104600000C3252E8000F20F4907042E80007002FAF
:10461000F5D12068143050E8002F22F0010240E864
:104620000027002FF5D184F84230256320680C3034
:1046300050E8002F22F0100240E80023002BF5D1B3
:1046400066632046FFF702FFF8BDFFE705062BD59E
:10465000150629D594F841002128F5D1A068B0F5B8
:10466000805F01D12069B0B1206A411C21622168BC
:1046700000784860E08C401E0004000CE084E3D128
:104680002068C16821F08001C1602068C16841F0E4
:104690004001C160D8E7206A0088C0F30800486084
:1046A000206A801C2062E5E74006CDD55006CBD5B8
:1046B000CA68204622F04002CA6084F8413000F007
:1046C00024F9C1E7274D000870B5040004D094F820
:1046D0004100002510B106E0012070BD84F8405073
:1046E000204600F023F8242084F841002068C168A7
:1046F00021F40051C160204600F0A6FB206801694A
:1047000021F4904101612068416921F02A01416151
:104710002068C16841F40051C1606564202084F8BC
:10472000410084F842006563002070BD30B585B05B
:10473000002400940194029403940068184988426C
:104740002CD11848816941F480418161816901F46B
:1047500080410491816941F0040181618069124DB9
:1047600000F0040004904FF40070009002200190CB
:104770000320039069462846FEF7DAFF2815CDE9A5
:104780000004694628460294FEF7D2FF0022114633
:104790002520FFF72FF92520FFF71EF905B030BDC2
:1047A00000380140001002400008014090F84230FB
:1047B000202B01D00220704721B11AB100230363DE
:1047C00000F09EBB0120704770B500681E4988420A
:1047D0000CD11E4C2088010408D41D4942044FF01E
:1047E000000509781FD50A2901D0258070BD40F445
:1047F000004020800104F9D5C6B216A0FBF72EFDBB
:1048000019494FF47A73324601F1C80000F030F8CC
:104810001548C83000680168C9434906FBD413A095
:10482000FBF71CFDE1E70D2909D0C0F30D020E4B8B
:10483000401C80B299542080C728D6D870BD40F45F
:104840008040208070BD000000380140E20300205D
:10485000E00300200D0AC4FAB7A2CBCDB5C4CFFB4C
:10486000CFA2CEAA3A0D0A00C40C00200D0A000007
:104870002DE9F843044690F841001F4616460D46C0
:10488000202802D00220BDE8F8837DB176B1002057
:104890006064212084F84100FFF740F8A684804638
:1048A000E684A068B0F5805F02D003E00120EAE76B
:1048B000206910B12E4600250EE000260CE0802174
:1048C000204600F038FBA0B9AEB116F8010B216804
:1048D0004860E08C401EE084E08C43464FF00002CC
:1048E00000970028EBD14FF04001204600F023FB59
:1048F00030B10320C7E735F8020BC0F30800E6E744
:10490000202084F841000020BDE77047FEE700004A
:104910002DE9F04186B000252848009501950295C3
:104920000395816941F004018161816901F004010D
:104930000491816941F0080181618069204F00F094
:1049400008000490012210213846FEF7E1FFDFF84D
:104950007480002241F604014046FEF7D9FF02268A
:1049600019480096CDE9010569463846FEF7E0FE94
:10497000102001248DE8310003256946384603954F
:10498000FEF7D6FE0420CDE90004CDE902466946D3
:104990004046FEF7CDFEE80203958DE851006946DA
:1049A0004046FEF7C5FE002201210720FFF722F84E
:1049B0000720FFF711F806B0BDE8F08100100240B3
:1049C00000080140000C014000002110104810B503
:1049D0000E4901604FF48271416000218160C16025
:1049E0004FF400720161C0E905121022C0E90721ED
:1049F000416281620A21C162FFF79AFA002803D05E
:104A0000BDE81040FEF7F8BD10BD000000300140C9
:104A1000240C002010B586B000241748009401949F
:104A20000294039404941349059401603F21C0E962
:104A300001144FF6FF71C0E903148461FFF756FCBF
:104A400008B1FEF7D9FD4FF48050009069460A483E
:104A5000FFF78EFC08B1FEF7CFFD049404A90648C9
:104A60000594FFF70FFC002801D0FEF7C5FD06B046
:104A700010BD0000000800407C0C00200E4810B55E
:104A80000C4901604FF4E1314160002181600C224A
:104A9000C160C0E904128161C161FFF715FE08B170
:104AA000FEF7AAFDBDE810404FF4807203490248AA
:104AB000FFF77CBE003801408C0D0020E003002091
:104AC000FEE7FEE77047000010B5012804D0022879
:104AD00004D003280AD116E0002100E001210820BB
:104AE000FEF722FD00211020FEF71EFD0948FDF70C
:104AF0005FF801210820FEF717FD0121BDE81040F5
:104B00001020FEF711BD00210820FEF70DFD012148
:104B1000E9E70000801A060038B50B46009204460B
:104B20000022802100F008F8002804D0606D40F0D9
:104B300020006065032038BD2DE9F8431E469146EC
:104B400088460446089DFEF7E9FE401B351AFEF72D
:104B5000E5FE074625480068C0F3CB30684338E0DF
:104B6000701C37D0FEF7DAFEC01BA84203D215B185
:104B7000009860B32CE02068416821F0E0014160BA
:104B80006068B0F5827F0BD1A068B0F5004F02D00D
:104B9000B0F5806F04D12068016821F04001016008
:104BA000A06AB0F5005F09D12068016821F40051C6
:104BB00001602068016841F400510160012084F81F
:104BC0005100002084F850000320BDE8F883002540
:104BD000401E00902068816838EA010004D000215E
:104BE0004945BDD10020F0E70121F9E7F403002099
:104BF0007047FEF799BE30B58FB028216846FBF7A5
:104C0000E7FC14210AA8FBF7E3FC0225012004902D
:104C100000951020059000244FF46010CDE9084065
:104C200007956846FEF7F4FF60B90F20CDE90A0545
:104C30006802CDE90C4002210AA80E94FEF70CFF91
:104C4000002801D0FEF7D8FC0FB030BD704700003F
:104C5000F0B50268164B174C174D4FF0804798423D
:104C600005D0B84203D0A04201D0A84203D122F01F
:104C700070064A683243984205D0B84203D0A04239
:104C800001D0A84203D122F44074CA6822434C697F
:104C900022F08002224302608A68C2620A6882624D
:104CA000984201D10969016301214161F0BD000011
:104CB000002C0140000400400008004010B584684A
:104CC00042EA032224F47F440A432243826010BD57
:104CD000826822F070020A4342F007018160704747
:104CE00010B5036A046A24F001040462846924F0A4
:104CF000F00444EA021423F00A020A4384610262C7
:104D000010BD10B5036A046A24F0100404628469BB
:104D100023F0A00324F4704444EA023243EA011170
:104D20008261016210BD10B5406A0021C185C18455
:104D3000FFF78DFB10BD01680C3151E8002F22F404
:104D4000907241E80023002BF5D10168143151E83D
:104D5000002F22F0010241E80023002BF5D1016B66
:104D6000012909D101680C3151E8002F22F010020D
:104D700041E80023002BF5D1202180F842100021CA
:104D80000163704708B590F84210222901D0022033
:104D900008BD82684FF480539A4201D1016921B164
:104DA000816A9A421BD04AB10AE00268816A52685D
:104DB000C2F308020A80816A891C08E0026972B1A4
:104DC0000268526802F07F020A70816A491C81629F
:104DD000C18D491E0904090CC18503D01BE002687E
:104DE0005268F1E70168CA6822F02002CA600168CF
:104DF000CA6822F48072CA6001684A6922F001021E
:104E00004A61202180F8421000214163026B012A8F
:104E100003D0FFF7D9FC002008BD016301680C3105
:104E200051E8002F22F0100241E80023002BF5D1B9
:104E300001680A68D20602D50A6849680091818D26
:104E4000FFF704FBE7E7000070B50446006801695E
:104E5000E26821F44051114301612169A0680843CF
:104E6000616908432168CA6841F20C639A430243AE
:104E7000CA6020684169A26921F44071114341610F
:104E80001E492068884202D1FEF78CFE01E0FEF741
:104E900079FE00EBC00101EB001260686421800024
:104EA000B2FBF0F3B3FBF1F36FF018067343B2FB00
:104EB000F0F5B2FBF0F605EB8305322303EB0515A5
:104EC000B5FBF1F5B6FBF1F605F0F00505EB0615BF
:104ED000B2FBF0F6B2FBF0F0B0FBF1F06FF01802AD
:104EE000504306EB800003EB0010B0FBF1F02168AB
:104EF00000F00F002844886070BD000000380140B9
:104F000081628285C28500214164222180F842109D
:104F1000016921B10168CA6842F48072CA600168FF
:104F20004A6942F001024A610068C16841F020010B
:104F3000C160002070472DE9F041984617460E46A3
:104F40000446069D27E0681C25D02DB1FEF7E6FC3F
:104F5000A0EB0800A8421ED920680C3050E8001FC2
:104F600021F4D07140E80012002AF5D120681430F5
:104F700050E8001F21F0010140E80012002AF5D19D
:104F8000202084F8410084F84200002084F840008A
:104F90000320BDE8F0812068006836EA000004D0F4
:104FA0000020B842CFD00020F3E70120F9E700004D
:104FB00010B50948FFF752FA0748FFF74FFA0648BD
:104FC000FFF746FA2028FAD1012204490248FFF7E8
:104FD000EDFB0028F8D110BD8C0D0020E00300206F
:104FE000FEE70000FFB40B2911D2032902D3C90048
:104FF00040310DE00C4E052A78CE8DE8780006D2BF
:1050000001EB81016B461944895CC90000E0F8217D
:10501000114310B142F2F40001E042F2F80004B092
:10502000F0BCFDF717BD0000D4750008490050EA38
:10503000C12018BF04204A0D18BF40F0010040F203
:10504000FF72B2EB515F08BF40F00200012808BFB9
:10505000052070470907090E002804DB00F1E02055
:1050600080F80014704700F00F0000F1E02080F895
:10507000141D70472DE9F0414F1E00EBC701044697
:10508000D1E9000115461E4637F006020DD02A462A
:10509000334601F0F9FA7F1E04EBC703D3E900237E
:1050A00001F03CF837F00602F1D1022F25D0042F91
:1050B00013D0062F18BFBDE8F0812A46334601F011
:1050C000E3FAD4E90A2301F029F82A46334601F02D
:1050D000DBFAD4E9082301F021F82A46334601F02F
:1050E000D3FAD4E9062301F019F82A46334601F031
:1050F000CBFAD4E9042301F011F82A46334601F033
:10510000C3FAD4E9022301F009F82A46334601F034
:10511000BBFAD4E90023BDE8F04100F0FFBF000076
:10512000002213461046014901F0B4B80000F03FD8
:10513000012202F06CB900F0F1BF002213461046C4
:10514000114601F0A7B840F2013200204FF0E041D3
:1051500002F05DB9024A0020110702F058B90000C0
:1051600001FDFFFF30380A2801D2012070470020DE
:10517000704730B5002406E00D5D854202D11C70F9
:10518000012030BD641C9442F6DB002030BD704726
:105190000D4900220B685A620A68136843F0010344
:1051A000136009684A6A8242FCD3086A41F211120C
:1051B000104207D1086A9210104203D1086820F00B
:1051C00001000860704700007C0C002013B54FF60A
:1051D000FF73012269460248FFF74AFB00981CBD95
:1051E0008C0D00202DE9F04DC84A002490B091426A
:1051F00005DA21F00043934201D805D120B110B067
:10520000BDE8F04DFFF794BFB1F5801F1BDA53EAFC
:10521000000209D0002911DA0120FBF709FA10B0C9
:10522000BDE8F04DFFF789BF0220FBF701FAFFF759
:1052300077FF10B081F00041BDE8F08D6FF03504CC
:10524000362202F0E4F804EB2152C1F31308B0490E
:10525000A2F2FF33414401F4801282F07F6103EB3C
:10526000225281F04051009241EA08010022A94BEC
:1052700001F030FC044608F10200A74EC0F3130011
:105280000D467E44032867D2D6E90023204601F06C
:1052900059F91ED10098002802BFD6E9000110B0CC
:1052A000BDE8F08D01F08AF907460C469B4A9C4BFD
:1052B00001F0EAF906460D469A4A9B4B38462146CC
:1052C00001F0E2F910B032462B46BDE8F04D00F097
:1052D00025BF4FF05532954B2046294601F0D4F9B1
:1052E0000022934B01F004FB06460F4622462B4654
:1052F0001046194601F0C8F932463B4601F0C4F9A0
:10530000064600980F46F0B101F058F980468A46EB
:10531000824A834B01F0B8F932463B4601F0E8FA85
:1053200022462B4601F0D6FB05460C467D4A7E4BB5
:105330004046514601F0A8F910B02A462346BDE880
:10534000F04D01F0C7BB0B4610B03246204629464F
:10535000BDE8F04D01F0BEBB00224FF08043204677
:1053600000F0DCFE02460B462046294600F092FF84
:1053700006460F46009801F021F9CDE904013246B6
:105380003B461046394601F07FF90C9069480C9A6B
:105390004044019009910B46104601F075F9824690
:1053A000024665488B46C8F151080B4608F5D728D8
:1053B00003217844FFF75EFE52465B4601F064F934
:1053C0000A905E480D9152465B4604217844FFF7EF
:1053D00051FE099B0C9A01F057F9844601980D9BE8
:1053E00040EA080860460A9A00F098FE8346089151
:1053F000B8F1000F4EDD4FF0FF322046294602F093
:1054000006F822462B4601F03FF9804600988A466E
:1054100060B3DDE90401414A414B01F035F90991DE
:1054200000905A4640465146089B00F077FE3246AF
:105430003B4601F029F9099B009A00F06FFE4246B5
:10544000534601F055FA22462B4601F043FB044631
:105450000D46DDE90401334A334B01F015F910B074
:1054600022462B46BDE8F04D01F034BB5A4640467B
:10547000089B00F053FE32463B4601F005F94246D8
:10548000534601F035FA10B022462B46BDE8F04DE8
:1054900001F02EBA009840B3DDE904011F4A204B09
:1054A00001F0F2F880468A465A4620462946089B73
:1054B00001F010FB32463B4601F0E6F84246534607
:1054C00001F008FB22462B4601F004FB04460D4682
:1054D000DDE90401134A144B01F0D6F810B022465E
:1054E0002B46BDE8F04D01F0F5BA0B465A46204672
:1054F000294601F0EFFA32463B4601F0C5F810B0FC
:1055000022462B46BDE8F04D01F0F2B90000F07FD5
:10551000645F09000000F03F9A250000763C793571
:10552000EF39EA3D0000E0FE422EE63F5555D53FFB
:105530000000E03F86EBF9FF322400003024000039
:105540002DE9F041044630480025814205DA21F07A
:105550000042824201D805D124B12046BDE8F04185
:10556000FFF7E6BDB1F5801F1BDA52EA040008D050
:1055700000290FDA0120FBF75BF8BDE8F041FFF7E7
:10558000DCBD0220FBF754F8FFF7CAFD81F00041B3
:10559000BDE8F0816FF035053622204601F037FF77
:1055A000044605EB2150A0F2FF32D00F40F2FF334A
:1055B0001B1A0D4663F31F55104400F0FFFF06460B
:1055C0000F4629462046FFF70DFE104A104B01F00A
:1055D0005BF804460D460F4A0F4B3046394601F042
:1055E00053F822462B4600F099FD05460C460B4A1F
:1055F0000B4B3046394601F047F82A462346BDE8B2
:10560000F04100F08BBD00000000F07F0EE5261594
:105610007BCBDB3F362BF111F3FE593D00609F50F1
:105620001344D33F70B5FEF787F9FFF7E4FAFFF7AD
:105630006FF9FFF7CBF9FFF7EDF9FFF71FFAFDF769
:1056400085FAFCF76FFAFCF7E5FEFDF731FAFCF797
:105650003FFE002442F210752846FFF799FD641CB6
:10566000642CF9DD002070BD2DE9F04D1D460C467F
:1056700098B0174621F0004123F00043002814BFE2
:105680004FF0010C4FF0000C0CEB440CFE4A0CEBFD
:1056900002064FEA620C66452BD33E0018BF012676
:1056A00006EB45061644F94A964222D3F84A53EAD5
:1056B000070C02D0944205D148B918B00020114619
:1056C000BDE8F08D002808BF4FF0000C01D04FF06E
:1056D000010C0CEB440212F5001F0AD8002F14BF76
:1056E0004FF0010C4FF0000C0CEB450212F5001FBF
:1056F00007D918B03A462B462146BDE8F04DFFF7D2
:105700001ABD0022DFF88CA3002CB8BF534526DA5F
:10571000DFF884C36345A8BF022220DADFF870C334
:105720009C451CDCDFF874C30CEB235CBCF1140F4C
:1057300008DDCCF1340627FA06FC0CFA06F6BE4268
:105740000DD108E05FB9CCF1140623FA06FC0CFA7F
:1057500006F69E4203D10CF00102C2F1020251EAA8
:10576000000C19D1002D17DA002C18BF022A01D025
:10577000012A07D00220FAF75BFF18B0BDE8F04D10
:10578000FFF7CEBC0220FAF753FFFFF7C9FC18B0B1
:1057900081F00041BDE8F08DB7F1000C6CD15345AC
:1057A00025D104F1804212F5801201BF00280020AB
:1057B000B74918B008BFBDE8F08DB548884207DC8E
:1057C000002DA1BF6046294618B0BDE8F08D07E066
:1057D000281E05DA80F0004118B06046BDE8F08D63
:1057E000AF497944D1E9000118B0BDE8F08DDFF888
:1057F000A0C2634525D1002D1FDA19B1514512D140
:10580000D8B909E0002840F0EC82A24A214618B03D
:1058100062F31E01BDE8F08D0020214618B060F350
:105820001E01BDE8F08D08DA18B02346BDE8F04D42
:1058300002460020614600F02DBD18B02146BDE8AB
:10584000F08D514518DAB5F1804F0DD0A5F1005C0F
:10585000BCF1FF5C10D1B4F1000C0DDB18B0614657
:10586000BDE8F04D00F0ECBB234618B00246BDE8A1
:10587000F04D194600F008BF060024F0004C3BD163
:10588000D9B1514533D1002C06DD002DA1BF002038
:10589000514618B0BDE8F08D002C01DD002D1BDB5A
:1058A000002C13DA002D11DB012A4FF0000014BF89
:1058B00078497C4918B0BDE8F08D022A18BF002C49
:1058C0000AD0012A08D1002C06DA0AE0002CB8BF61
:1058D000002D11DA012A04D0002018B00146BDE8DD
:1058E000F08D18B000204FF00041BDE8F08DA1F11F
:1058F0004050B0F17F601AD0012000EBE47050EA14
:10590000020421D0624C521E4FF0000B104304BF22
:105910004FF0000B644C654883427CDD644A654867
:1059200093421FDD884217DB002D25DB37E0002C7A
:1059300000DA4AB1022A0CBF01204FF0FF3018B044
:10594000BDE8F04D00F03ABE0120FAF771FE18B044
:10595000BDE8F04DFFF7F1BB4D4A8A4202DC002D55
:105960000ADC1CE0814202DA002D18DA04E0484B20
:10597000994220DD002D12DD0220FAF759FEFFF7D3
:10598000E2FB05460E46002253465846214600F0EB
:105990007BFE18B066F31E012846BDE8F08D02209C
:1059A000FAF746FEFFF7D6FB0A46214618B062F327
:1059B0001E01BDE8F08D00223046614601F08AF8F4
:1059C00080460E466FF0010201F021FD4FF0553286
:1059D000394B00F08DFF4246334600F055FE002261
:1059E000364B00F085FF824642463346049110460E
:1059F000194600F049FE5246049B00F045FE8A46D7
:105A000000904FF0C0422E4B4046314600F03CFE25
:105A10002C4A2B4B00E027E0CDE9060151460098C7
:105A200000F032FE82460191274A284B404631461B
:105A300000F02AFE5246019B01F04CF882460B46CC
:105A400002460591DDE9060100F068FBDDE9062369
:105A500000268846304601F03DF85246059B00F08E
:105A600047FF024600F07EB90020B1F5801F07DA3B
:105A700035223046614601F0CAFC06466FF034001C
:105A800000EB215024E00000FFFF1F00FFFF0F008C
:105A90000000F03F0000F07F0000404301FCFFFFEA
:105AA0003A2000000000F0FF0000F0BF0000E041DD
:105AB0000000F043FFFFEF3F5555D53F0000E03FAA
:105AC0004715F73FFE822B6544DF5DF80BAE543E71
:105AD000A0F2FF300190C1F3130040F07F6141F06C
